:020000040800F2
:100000000028002055160008E5150008EB1500082B
:10001000F1150008F7150008FD15000800000000A4
:1000200000000000000000000000000003160008AF
:100030000F160008000000001B1600082716000815
:100040009D1600089D1600089D1600089D160008C4
:100050009D1600089D1600089D1600089D160008B4
:100060009D1600089D1600089D1600089D160008A4
:100070009D1600089D1600089D1600089D16000894
:100080009D1600089D1600089D1600089D16000884
:100090009D1600089D1600089D1600089D16000874
:1000A0009D1600089D1600089D1600089D16000864
:1000B000351600089D160008000000009D16000877
:1000C0009D16000800000000000000009D160008BA
:1000D000000000009D1600089D16000800000000AA
:1000E0009D1600089D1600089D16000800000000DF
:1000F0000000000000000000000000000000000000
:0C01000000000000000000005FF808F1A3
:10010C0010B5054C237833B9044B13B10448AFF345
:10011C0000800123237010BD5C0000200000000053
:10012C00F42C000808B5034B1BB103490348AFF38B
:10013C00008008BD0000000060000020F42C0008C6
:10014C0080B400AF064B1B68012B04D1044B00227A
:10015C001A60012300E000231846BD4680BC70479E
:10016C007800002080B400AF064B1B68012B04D133
:10017C00044B00221A60012300E000231846BD4600
:10018C0080BC70477C00002080B400AF034B012280
:10019C001A6000BFBD4680BC704700BF78000020CD
:1001AC0080B400AF034B01221A6000BFBD4680BC77
:1001BC00704700BF7C00002080B400AF034B0122CD
:1001CC001A6000BFBD4680BC704700BF8000002095
:1001DC0080B500AF1F4B1B681F4A13601F4B1B6879
:1001EC001C4A13604FF400511D4801F03DFD0346BD
:1001FC001A461A4B1A60184B1A68164B1B689A420F
:10020C0026D1144B1A68154B1B689A4220D1154BFA
:10021C001A68124B1B689A420ED0104B1B68114A7D
:10022C0013600E4B1B68002B12D10F4B4FF49672C0
:10023C001A60FFF7A9FF0BE00B4B1B68013B0A4A46
:10024C001360094B1B68002B02D1064B01221A606C
:10025C0000BF80BD0400002000000020080000202A
:10026C00001001400C0000203000002080B500AFD1
:10027C001F4B1B681F4A13601F4B1B681C4A1360E3
:10028C004FF480411D4801F0EFFC03461A461A4B0F
:10029C001A60184B1A68164B1B689A4226D1144BDD
:1002AC001A68154B1B689A4220D1154B1A68124BD1
:1002BC001B689A420ED0104B1B68114A13600E4BF0
:1002CC001B68002B12D10F4B4FF496721A60FFF77C
:1002DC0067FF0BE00B4B1B68013B0A4A1360094B91
:1002EC001B68002B02D1064B01221A6000BF80BD97
:1002FC001400002010000020180000200010014005
:10030C001C0000203400002080B500AF1F4B1B6880
:10031C001F4A13601F4B1B681C4A13604FF40041AB
:10032C001D4801F0A1FC03461A461A4B1A60184BE3
:10033C001A68164B1B689A4226D1144B1A68154B37
:10034C001B689A4220D1154B1A68124B1B689A42B3
:10035C000ED0104B1B68114A13600E4B1B68002B00
:10036C0012D10F4B4FF496721A60FFF725FF0BE07A
:10037C000B4B1B68013B0A4A1360094B1B68002B93
:10038C0002D1064B01221A6000BF80BD2400002060
:10039C002000002028000020001001402C0000202C
:1003AC003800002080B500AF984B1B68083B032B2E
:1003BC0000F2218101A252F823F000BFD9030008FA
:1003CC00F9030008AB0400085B05000800F02CF9E9
:1003DC00FFF7B6FE0346012B40F00F818B4B092231
:1003EC001A604FF4FA7000F0FDFF06E1884B1B68B1
:1003FC00012B20D10821874801F065FC402185485C
:10040C0001F061FC01221021824801F044FC012220
:10041C002021804801F03FFC012280217D4801F021
:10042C003AFC01224FF480717A4801F034FC4FF40D
:10043C00FA7000F0D7FF00224FF48061754801F08C
:10044C002AFC01224FF40061724801F024FC0220C6
:10045C0000F05CFAFFF786FE0346012B04D16E4BCD
:10046C001B6801336C4A13606C4B1B68012B08D161
:10047C00694B1B68184600F01DFE4FF4FA7000F033
:10048C00E5FFFFF75DFE0346012B40F0B8804FF40B
:10049C00FA7000F0A7FF5D4B0A221A60AFE05C4BCC
:1004AC001B68012B20D110215A4801F00CFC802133
:1004BC00584801F008FC01220821564801F0EBFBDA
:1004CC0001222021534801F0E6FB01224021514832
:1004DC0001F0E1FB01224FF480714E4801F0DBFB8F
:1004EC004FF4FA7000F07EFF00224FF4806149480F
:1004FC0001F0D1FB01224FF40061464801F0CBFB27
:10050C00032000F003FAFFF72DFE0346012B04D164
:10051C00434B1B680133424A1360404B1B68012B51
:10052C0008D13F4B1B68184600F0C4FD4FF4FA701D
:10053C0000F08CFFFFF704FE0346012B61D14FF452
:10054C00FA7000F04FFF314B0B221A6059E0304B20
:10055C001B68012B20D120212E4801F0B4FB4FF455
:10056C0080712C4801F0AFFB01220821294801F0D1
:10057C0092FB01221021274801F08DFB0122402122
:10058C00244801F088FB01228021224801F083FBE2
:10059C004FF4FA7000F026FF00224FF480611D48E2
:1005AC0001F079FB01224FF400611A4801F073FB52
:1005BC00042000F0ABF9FFF7D5FD0346012B04D165
:1005CC00184B1B680133174A1360144B1B68012B23
:1005DC0008D1144B1B68184600F06CFD4FF4FA70F0
:1005EC0000F034FFFFF7ACFD0346012B0BD1074B9A
:1005FC0008221A6007E000BF06E000BF04E000BF5D
:10060C0002E000BF00E000BF00BF80BD3C00002046
:10061C00A80000200008014040000020B800002085
:10062C00440000204800002080B500AFAB4B1B6895
:10063C00013B032B00F2498101A252F823F000BFC9
:10064C005D060008BD0600086107000835080008B3
:10065C0001220821A24801F01EFB01221021A04812
:10066C0001F019FB012220219D4801F014FB01220D
:10067C0040219B4801F00FFB01228021984801F09A
:10068C000AFB01224FF48071954801F004FB934B57
:10069C0002221A60934B1B68934A1360914B1B68A0
:1006AC004FF47A7202FB03F3184600F081FE13E15B
:1006BC00002208218A4801F0EEFA01221021884814
:1006CC0001F0E9FA01222021854801F0E4FA012227
:1006DC004021834801F0DFFA01228021804801F09B
:1006EC00DAFA00224FF480717D4801F0D4FA7F4B86
:1006FC001B68012B15D17C4B1B68184600F06CFC59
:10070C007B4B1B68012B08D1774B1B68013B764A4E
:10071C0013604FF47A7000F07FFE4FF4FA7000F023
:10072C0095FE744B1B68012B40F0D1806B4B032260
:10073C001A60714B02221A60704B1B68704A13606E
:10074C006E4B1B684FF47A7202FB03F3184600F0F1
:10075C002FFEBCE001220821614801F09CFA002226
:10076C0010215F4801F097FA012220215C4801F02A
:10077C0092FA012240215A4801F08DFA0022802180
:10078C00574801F088FA01224FF48071544801F067
:10079C0082FA564B1B68012B15D1594B1B68184616
:1007AC0000F01AFC524B1B68012B08D1544B1B68F0
:1007BC00013B534A13604FF47A7000F02DFE4FF456
:1007CC00FA7000F043FE4B4B1B68012B13D14A4BC4
:1007DC001B68022B0FD1414B04221A60494B1B683A
:1007EC00494A1360474B1B684FF47A7202FB03F3C0
:1007FC00184600F0DDFD3F4B1B68012B69D13E4BC9
:10080C001B68042B65D1354B02221A60354B1B68D3
:10081C00354A1360334B1B684FF47A7202FB03F3B7
:10082C00184600F0C5FD54E0012208212C4801F0C7
:10083C0032FA012210212A4801F02DFA002220213F
:10084C00274801F028FA00224021254801F023FA1C
:10085C0001228021224801F01EFA01224FF48071FE
:10086C001F4801F018FA214B1B68012B15D1264BA0
:10087C001B68184600F0B0FB1D4B1B68012B08D100
:10088C00214B1B68013B204A13604FF47A7000F037
:10089C00C3FD4FF4FA7000F0D9FD164B1B68012B09
:1008AC0019D10E4B03221A60134B04221A60134BFE
:1008BC001B68134A1360114B1B684FF47A7202FBCE
:1008CC0003F3184600F074FD05E000BF04E000BF20
:1008DC0002E000BF00E000BF00BF80BD940000201C
:1008EC00000801404000002088000020B8000020D3
:1008FC00B0000020A0000020840000204400002054
:10090C008C000020480000209000002080B582B0B0
:10091C0000AF78607B68092B00F2808101A252F84D
:10092C0023F000BF59090008A1090008E9090008D3
:10093C00310A0008790A0008C10A0008090B0008EE
:10094C00510B0008990B0008E10B00080022012153
:10095C00B54801F0A0F900220221B34801F09BF93F
:10096C0000220421B04801F096F900220821AE487B
:10097C0001F091F900221021AB4801F08CF9002212
:10098C002021A94801F087F901224021A64801F055
:10099C0082F944E101220121A34801F07CF90022F3
:1009AC000221A14801F077F9002204219E4801F0B0
:1009BC0072F9012208219C4801F06DF901221021E5
:1009CC00994801F068F901222021974801F063F958
:1009DC0001224021944801F05EF920E1002201211E
:1009EC00914801F058F9002202218F4801F053F987
:1009FC00012204218C4801F04EF9002240218A4842
:100A0C0001F049F900220821874801F044F900223D
:100A1C001021854801F03FF901222021824801F084
:100A2C003AF9FCE0002201217F4801F034F9002260
:100A3C0002217D4801F02FF9002204217A4801F0AF
:100A4C002AF900220821784801F025F90122102109
:100A5C00754801F020F901222021734801F01BF99F
:100A6C0000224021704801F016F9D8E00122012142
:100A7C006D4801F010F9002202216B4801F00BF9CE
:100A8C0000220421684801F006F901220821664879
:100A9C0001F001F901221021634801F0FCF8002259
:100AAC004021614801F0F7F8002220215E4801F056
:100ABC00F2F8B4E0002201215B4801F0ECF80122CD
:100ACC000221594801F0E7F800220421564801F0B0
:100ADC00E2F800220821544801F0DDF8012210212F
:100AEC00514801F0D8F8002240214F4801F0D3F8CA
:100AFC00002220214C4801F0CEF890E00022012188
:100B0C00494801F0C8F801220221474801F0C3F816
:100B1C0000224021444801F0BEF800220421424842
:100B2C0001F0B9F8002208213F4801F0B4F8002286
:100B3C0010213D4801F0AFF8002220213A4801F085
:100B4C00AAF86CE000220121374801F0A4F8002239
:100B5C000221354801F09FF800220421324801F0AF
:100B6C009AF801220821304801F095F80122102151
:100B7C002D4801F090F8012220212B4801F08BF830
:100B8C0001224021284801F086F848E0002201218A
:100B9C00254801F080F800220221234801F07BF85F
:100BAC0000220421204801F076F8002208211E487A
:100BBC0001F071F8002210211B4801F06CF80022A2
:100BCC002021194801F067F800224021164801F055
:100BDC0062F824E000220121134801F05CF80022A5
:100BEC000221114801F057F8002204210E4801F0AF
:100BFC0052F8002208210C4801F04DF80122102176
:100C0C00094801F048F800222021074801F043F878
:100C1C0000224021044801F03EF800E000BF00BF74
:100C2C000837BD4680BD00BF000C014080B582B0C6
:100C3C0000AF78607B68092B00F2C88101A252F8E2
:100C4C0023F000BF790C0008CF0C0008250D00081C
:100C5C007B0D0008D10D0008270E00087D0E000842
:100C6C00D30E0008290F00087F0F000800224FF454
:100C7C008071D54801F00FF800224FF40071D24872
:100C8C0001F009F800224FF48061CF4801F003F81D
:100C9C0000224FF40061CC4800F0FDFF00224FF41D
:100CAC008051C94800F0F7FF00224FF40051C648AC
:100CBC0000F0F1FF01224FF48041C34800F0EBFF3C
:100CCC0085E101224FF48071BF4800F0E4FF00225F
:100CDC004FF40071BC4800F0DEFF00224FF480613D
:100CEC00B94800F0D8FF01224FF40061B64800F07B
:100CFC00D2FF01224FF48051B34800F0CCFF012207
:100D0C004FF40051B04800F0C6FF01224FF480416F
:100D1C00AD4800F0C0FF5AE100224FF48071AA48A0
:100D2C0000F0B9FF00224FF40071A74800F0B3FFA8
:100D3C0001224FF48061A44800F0ADFF00224FF473
:100D4C000061A14800F0A7FF00224FF480519E489B
:100D5C0000F0A1FF01224FF400519B4800F09BFFD3
:100D6C0000224FF48041984800F095FF2FE10022BB
:100D7C004FF48071944800F08EFF00224FF4007104
:100D8C00914800F088FF00224FF480618E4800F0FB
:100D9C0082FF00224FF400618B4800F07CFF01229F
:100DAC004FF48051884800F076FF01224FF4005137
:100DBC00854800F070FF00224FF48041824800F01B
:100DCC006AFF04E101224FF480717F4800F063FF59
:100DDC0000224FF400717C4800F05DFF00224FF4BC
:100DEC008061794800F057FF01224FF4006176488A
:100DFC0000F051FF01224FF48051734800F04BFF7B
:100E0C0000224FF40051704800F045FF00224FF4CF
:100E1C0080416D4800F03FFFD9E000224FF4807113
:100E2C00694800F038FF01224FF40071664800F069
:100E3C0032FF00224FF48061634800F02CFF002247
:100E4C004FF40061604800F026FF01224FF48051FE
:100E5C005D4800F020FF00224FF400515A4800F08A
:100E6C001AFF00224FF48041574800F014FFAEE007
:100E7C0000224FF48071544800F00DFF01224FF412
:100E8C000071514800F007FF00224FF480614E487A
:100E9C0000F001FF00224FF400614B4800F0FBFE14
:100EAC0000224FF48051484800F0F5FE00224FF428
:100EBC000051454800F0EFFE00224FF480414248BB
:100ECC0000F0E9FE83E000224FF480713E4800F010
:100EDC00E2FE00224FF400713B4800F0DCFE0022E1
:100EEC004FF48061384800F0D6FE01224FF40061C7
:100EFC00354800F0D0FE01224FF48051324800F00A
:100F0C00CAFE01224FF400512F4800F0C4FE01220A
:100F1C004FF480412C4800F0BEFE58E000224FF404
:100F2C008071294800F0B7FE00224FF4007126486A
:100F3C0000F0B1FE00224FF48061234800F0ABFEBC
:100F4C0000224FF40061204800F0A5FE00224FF46F
:100F5C0080511D4800F09FFE00224FF400511A48AA
:100F6C0000F099FE00224FF48041174800F093FEE8
:100F7C002DE000224FF48071134800F08CFE00220B
:100F8C004FF40071104800F086FE00224FF480618F
:100F9C000D4800F080FE00224FF400610A4800F07A
:100FAC007AFE01224FF48051074800F074FE0022B3
:100FBC004FF40051044800F06EFE00224FF48041C3
:100FCC00014800F068FE02E0000C014000BF00BFC9
:100FDC000837BD4680BD00BF80B584B000AF7860D7
:100FEC007B68314A82FB03129210DB17D31AFB6029
:100FFC007A682D4B83FB02139910D317C91A0B4631
:10100C009B000B445B00D31ABB60284B1B68002B66
:10101C0002D0012B22D043E000224FF480612448FF
:10102C0000F039FE01224FF40061214800F033FE3C
:10103C0000224FF480511E4800F02DFE01224FF487
:10104C0000511B4800F027FEF868FFF75FFCF868BA
:10105C00FFF7ECFD154B01221A6021E001224FF441
:10106C008061134800F017FE00224FF40061104815
:10107C0000F011FE01224FF480510D4800F00BFEE0
:10108C0000224FF400510A4800F005FEB868FFF743
:10109C003DFCB868FFF7CAFD044B00221A6000BF84
:1010AC0000BF1037BD4680BD67666666980000209D
:1010BC000008014080B584B000AF78607B68224A9C
:1010CC0082FB03129210DB17D31AFB607A681E4B5B
:1010DC0083FB02139910D317C91A0B469B000B44C0
:1010EC005B00D31ABB60194B1B68002B02D0012B81
:1010FC0013D025E000224FF48051154800F0CBFDB1
:10110C0001224FF40051124800F0C5FDF868FFF7BA
:10111C008DFD0E4B01221A6012E001224FF480511A
:10112C000B4800F0B8FD00224FF40051084800F0C5
:10113C00B2FDB868FFF77AFD044B00221A6000BFBD
:10114C0000BF1037BD4680BD6766666698000020FC
:10115C000008014080B500AF00F09CFA00F018F8D0
:10116C0000F09EF800F050F8074801F0FDF9074B2D
:10117C0001221A600A2000F04FF90A2000F066F9EB
:10118C00FFF710F9FCE700BFBC0000209400002022
:10119C0080B590B000AF07F1180328220021184643
:1011AC0001F09AFD3B1D00221A605A609A60DA60C9
:1011BC001A610223BB610123BB621023FB62002373
:1011CC007B6307F11803184600F096FD0346002BCD
:1011DC0001D000F0E7F80F237B600023BB600023F5
:1011EC00FB6000233B6100237B613B1D0021184603
:1011FC0001F002F80346002B01D000F0D3F800BF39
:10120C004037BD4680BD000080B586B000AF07F109
:10121C00080300221A605A609A60DA603B4600228A
:10122C001A605A601D4B4FF080421A601B4B41F6FE
:10123C003F725A60194B00229A60184B0922DA60EF
:10124C00164B00221A61154B00229A61134801F0CB
:10125C003BF90346002B01D000F0A4F84FF4805367
:10126C00BB6007F1080319460C4801F0D1FA03469C
:10127C00002B01D000F096F800233B6000237B602C
:10128C003B461946054801F099FC0346002B01D05A
:10129C0000F088F800BF1837BD4680BDBC000020A8
:1012AC0080B588B000AF07F1100300221A605A60B5
:1012BC009A60DA602F4B9B692E4A43F010039361BE
:1012CC002C4B9B6903F01003FB60FB68294B9B695B
:1012DC00284A43F004039361264B9B6903F00403F3
:1012EC00BB60BB68234B9B69224A43F008039361A4
:1012FC00204B9B6903F008037B607B68002243F65C
:10130C00F8511D4800F0C7FC002247F67F711B48BE
:10131C0000F0C1FC4FF460433B6100237B6101236F
:10132C00BB6107F110031946154800F023FB43F687
:10133C00F8533B6101237B610023BB610223FB61FA
:10134C0007F1100319460C4800F014FB47F67F73A5
:10135C003B6101237B610023BB610223FB6107F12D
:10136C0010031946054800F005FB00BF2037BD46A9
:10137C0080BD00BF0010024000080140000C01407D
:10138C000010014080B582B000AF786000F078F8B2
:10139C00FEF71EFFFEF76AFFFEF7B6FF00BF083729
:1013AC00BD4680BD80B400AF72B600BFFEE7000042
:1013BC0080B483B000AF7860074B1B687A6892FBEF
:1013CC00F3F3064A1360064B00221A6000BF0C3779
:1013DC00BD4680BC704700BF4C0000209C00002024
:1013EC00A000002080B483B000AF7860074B1B686E
:1013FC007A6892FBF3F3064A1360064B00221A60DC
:10140C0000BF0C37BD4680BC704700BF4C000020AD
:10141C00A4000020A800002080B483B000AF786046
:10142C00074B1B687A6892FBF3F3064A1360064B72
:10143C0000221A6000BF0C37BD4680BC704700BF4D
:10144C004C000020AC000020B000002080B483B021
:10145C0000AF7860074B1B687A6892FBF3F3064A7F
:10146C001360064B00221A6000BF0C37BD4680BCCF
:10147C00704700BF4C000020B4000020B8000020D2
:10148C0080B400AF214B1B68002B0BDD1F4B1B687E
:10149C00013B1E4A13601D4B1B68002B02DC1C4BCE
:1014AC0001221A601B4B1B68002B0BDD194B1B68B0
:1014BC00013B184A1360174B1B68002B02DC164BC0
:1014CC0001221A60154B1B68002B0BDD134B1B689C
:1014DC00013B124A1360114B1B68002B02DC104BB2
:1014EC0001221A600F4B1B68002B0BDD0D4B1B6888
:1014FC00013B0C4A13600B4B1B68002B02DC0A4BA4
:10150C0001221A6000BFBD4680BC70479C000020C1
:10151C00A0000020A4000020A8000020AC000020A7
:10152C00B0000020B4000020B800002080B485B0CA
:10153C0000AF154B9B69144A43F001039361124BA6
:10154C009B6903F00103BB60BB680F4BDB690E4A60
:10155C0043F08053D3610C4BDB6903F080537B6009
:10156C007B680A4B5B68FB60FB6823F0E063FB6005
:10157C00FB6843F08063FB60044AFB68536000BF68
:10158C001437BD4680BC704700100240000001407B
:10159C0080B584B000AF78607B681B68B3F1804F76
:1015AC0013D10C4BDB690B4A43F00103D361094B9C
:1015BC00DB6903F00103FB60FB68002200211C20A7
:1015CC0000F0A1F91C2000F0BAF900BF1037BD469D
:1015DC0080BD00BF0010024080B400AFFEE780B4B5
:1015EC0000AFFEE780B400AFFEE780B400AFFEE7CB
:1015FC0080B400AFFEE780B400AF00BFBD4680BC36
:10160C00704780B400AF00BFBD4680BC704780B44B
:10161C0000AF00BFBD4680BC704780B500AF00F086
:10162C007FF800BF80BD000080B500AF024800F01D
:10163C00E7FF00BF80BD00BFBC00002080B400AF3E
:10164C0000BFBD4680BC70470C480D490D4A0023B5
:10165C0002E0D458C4500433C4188C42F9D30A4A5B
:10166C000A4C002301E013600432A242FBD3FFF7C3
:10167C00E5FF01F00DFBFFF76DFD7047000000204A
:10168C005C000020342D00085C00002008010020C4
:10169C00FEE7000080B500AF084B1B68074A43F01B
:1016AC0010031360032000F023F90F2000F008F85A
:1016BC00FFF73CFF0023184680BD00BF002002400E
:1016CC0080B582B000AF7860124B1A68124B1B7851
:1016DC0019464FF47A73B3FBF1F3B2FBF3F31846EC
:1016EC0000F03BF90346002B01D001230EE07B6890
:1016FC000F2B0AD8002279684FF0FF3000F003F965
:10170C00064A7B681360002300E001231846083763
:10171C00BD4680BD50000020580000205400002021
:10172C0080B400AF054B1B781A46054B1B6813445D
:10173C00034A136000BFBD4680BC704758000020B0
:10174C000401002080B400AF024B1B681846BD4654
:10175C0080BC70470401002080B485B000AF786075
:10176C007B6803F00703FB600C4BDB68BB60BA685B
:10177C004FF6FF031340BB60FB681A02BB681343B0
:10178C0043F0BF6343F40033BB60044ABB68D360CF
:10179C0000BF1437BD4680BC704700BF00ED00E0B1
:1017AC0080B400AF044BDB681B0A03F00703184638
:1017BC00BD4680BC704700BF00ED00E080B483B034
:1017CC0000AF0346FB7197F90730002B0BDBFB795D
:1017DC0003F01F02064997F907305B09012000FA54
:1017EC0002F241F8232000BF0C37BD4680BC704785
:1017FC0000E100E080B483B000AF03463960FB71B8
:10180C0097F90730002B0ADB3B68DAB20C4997F9E1
:10181C0007301201D2B20B4483F800230AE03B6874
:10182C00DAB20849FB7903F00F03043B1201D2B280
:10183C000B441A7600BF0C37BD4680BC704700BF06
:10184C0000E100E000ED00E080B489B000AFF8608A
:10185C00B9607A60FB6803F00703FB61FB69C3F1B5
:10186C000703042B28BF0423BB61FB690433062B3D
:10187C0002D9FB69033B00E000237B614FF0FF3290
:10188C00BB6902FA03F3DA43BB681A407B699A40DE
:10189C004FF0FF317B6901FA03F3D9437B680B40AE
:1018AC00134318462437BD4680BC704780B582B0C0
:1018BC0000AF78607B68013BB3F1807F01D30123DB
:1018CC000FE00A4A7B68013B53600F214FF0FF3059
:1018DC00FFF790FF054B00229A60044B07221A6019
:1018EC00002318460837BD4680BD00BF10E000E05D
:1018FC0080B582B000AF78607868FFF72DFF00BF2D
:10190C000837BD4680BD80B586B000AF0346B960D0
:10191C007A60FB7300237B61FFF742FF78617A6882
:10192C00B9687869FFF790FF024697F90F301146B6
:10193C001846FFF75FFF00BF1837BD4680BD80B566
:10194C0082B000AF0346FB7197F907301846FFF7DA
:10195C0035FF00BF0837BD4680BD80B582B000AFF3
:10196C0078607868FFF7A2FF034618460837BD4633
:10197C0080BD000080B48BB000AF7860396000236C
:10198C007B6200233B6248E101227B6A02FA03F38B
:10199C00FB613B681B68FA691340BB61BA69FB6960
:1019AC009A4240F037813B685B68A34A93425ED011
:1019BC00A14A934275D8A14A934258D09F4A934268
:1019CC006FD89F4A934252D09D4A934269D89D4A00
:1019DC0093424CD09B4A934263D89B4A934246D045
:1019EC00994A93425DD8122B2AD8122B59D801A2AE
:1019FC0052F823F07B1A0008551A0008671A0008E1
:101A0C00A91A0008AF1A0008AF1A0008AF1A00088C
:101A1C00AF1A0008AF1A0008AF1A0008AF1A000876
:101A2C00AF1A0008AF1A0008AF1A0008AF1A000866
:101A3C00AF1A0008AF1A00085D1A0008711A0008E6
:101A4C00824A934213D02CE03B68DB683B6229E06E
:101A5C003B68DB6804333B6224E03B68DB6808339B
:101A6C003B621FE03B68DB680C333B621AE03B686F
:101A7C009B68002B02D104233B6213E03B689B68FC
:101A8C00012B05D108233B627B68FA691A6109E0D6
:101A9C0008233B627B68FA695A6103E000233B62CE
:101AAC0000E000BFBB69FF2B01D87B6801E07B68BD
:101ABC0004337B61BB69FF2B02D87B6A9B0002E07D
:101ACC007B6A083B9B003B617B691A680F213B6971
:101ADC0001FA03F3DB431A40396A3B6901FA03F359
:101AEC001A437B691A603B685B6803F08053002BD8
:101AFC0000F09080564B9B69554A43F0010393616B
:101B0C00534B9B6903F00103BB60BB68514A7B6A72
:101B1C009B08023352F82330FB607B6A03F003030B
:101B2C009B000F2202FA03F3DB43FA681340FB60BD
:101B3C007B68494A93420DD07B68484A934207D050
:101B4C007B68474A934201D1022304E0032302E05D
:101B5C00012300E000237A6A02F003029200934012
:101B6C00FA681343FB603B497B6A9B080233FA68B3
:101B7C0041F823203B685B6803F48033002B06D0CC
:101B8C00384B1A683749BB6913430B6006E0354B79
:101B9C001A68BB69DB43334913400B603B685B68D5
:101BAC0003F40033002B06D02E4B5A682D49BB6929
:101BBC0013434B6006E02B4B5A68BB69DB43294946
:101BCC0013404B603B685B6803F48013002B06D01A
:101BDC00244B9A682349BB6913438B6006E0214B65
:101BEC009A68BB69DB431F4913408B603B685B6899
:101BFC0003F40013002B06D01A4BDA681949BB69A1
:101C0C001343CB6006E0174BDA68BB69DB4315491D
:101C1C001340CB607B6A01337B623B681A687B6A3A
:101C2C0022FA03F3002B7FF4AFAE00BF00BF2C37BA
:101C3C00BD4680BC704700BF000032100000311060
:101C4C0000002210000021100000121000001110E2
:101C5C00001002400000014000080140000C01404F
:101C6C00001001400004014080B485B000AF7860E2
:101C7C000B467B807B689A687B881340002B02D0D4
:101C8C000123FB7301E00023FB73FB7B1846143725
:101C9C00BD4680BC704780B483B000AF78600B4603
:101CAC007B8013467B707B78002B03D07A887B6813
:101CBC001A6103E07B881A047B681A6100BF0C3739
:101CCC00BD4680BC704780B485B000AF78600B46D1
:101CDC007B807B68DB68FB607A88FB6813401A04A6
:101CEC00FB68D9437B880B401A437B681A6100BFA1
:101CFC001437BD4680BC704780B586B000AF7860A5
:101D0C007B68002B01D101236CE27B681B6803F01C
:101D1C000103002B00F08780924B5B6803F00C03EF
:101D2C00042B0CD08F4B5B6803F00C03082B12D1E7
:101D3C008C4B5B6803F48033B3F5803F0BD1894B3C
:101D4C001B6803F40033002B6CD07B685B68002BA2
:101D5C0068D1012346E27B685B68B3F5803F06D10E
:101D6C00804B1B687F4A43F4803313602EE07B6802
:101D7C005B68002B0CD17B4B1B687A4A23F48033B5
:101D8C001360784B1B68774A23F4802313601DE0A3
:101D9C007B685B68B3F5A02F0CD1724B1B68714A42
:101DAC0043F4802313606F4B1B686E4A43F48033FB
:101DBC0013600BE06B4B1B686A4A23F4803313608F
:101DCC00684B1B68674A23F4802313607B685B684D
:101DDC00002B13D0FFF7B6FC386108E0FFF7B2FC1C
:101DEC0002463B69D31A642B01D90323FAE15D4BFC
:101DFC001B6803F40033002BF0D014E0FFF7A2FCB7
:101E0C00386108E0FFF79EFC02463B69D31A642B4D
:101E1C0001D90323E6E1534B1B6803F40033002B79
:101E2C00F0D100E000BF7B681B6803F00203002BBD
:101E3C0063D04C4B5B6803F00C03002B0BD0494B6D
:101E4C005B6803F00C03082B1CD1464B5B6803F456
:101E5C008033002B16D1434B1B6803F00203002B7D
:101E6C0005D07B681B69012B01D00123BAE13D4BE6
:101E7C001B6823F0F8027B685B69DB00394913436C
:101E8C000B603AE07B681B69002B20D0364B01229B
:101E9C001A60FFF757FC386108E0FFF753FC024665
:101EAC003B69D31A022B01D903239BE12D4B1B68F1
:101EBC0003F00203002BF0D02A4B1B6823F0F8022E
:101ECC007B685B69DB00274913430B6015E0264BED
:101EDC0000221A60FFF736FC386108E0FFF732FC8D
:101EEC0002463B69D31A022B01D903237AE11D4B1D
:101EFC001B6803F00203002BF0D17B681B6803F016
:101F0C000803002B3AD07B689B69002B19D0174B28
:101F1C0001221A60FFF716FC386108E0FFF712FC8B
:101F2C0002463B69D31A022B01D903235AE10D4B0C
:101F3C005B6A03F00203002BF0D0012000F0A6FA3C
:101F4C001CE00A4B00221A60FFF7FCFB38610FE023
:101F5C00FFF7F8FB02463B69D31A022B08D903237F
:101F6C0040E100BF001002400000424280044242A7
:101F7C009E4B5B6A03F00203002BE9D17B681B6864
:101F8C0003F00403002B00F0A6800023FB75974B95
:101F9C00DB6903F08053002B0DD1944BDB69934A22
:101FAC0043F08053D361914BDB6903F08053BB60EA
:101FBC00BB680123FB758E4B1B6803F48073002BED
:101FCC0018D18B4B1B688A4A43F480731360FFF75C
:101FDC00B9FB386108E0FFF7B5FB02463B69D31A41
:101FEC00642B01D90323FDE0814B1B6803F4807340
:101FFC00002BF0D07B68DB68012B06D17B4B1B6A76
:10200C007A4A43F0010313622DE07B68DB68002BF6
:10201C000CD1764B1B6A754A23F001031362734B88
:10202C001B6A724A23F0040313621CE07B68DB68B2
:10203C00052B0CD16D4B1B6A6C4A43F004031362E5
:10204C006A4B1B6A694A43F0010313620BE0674B4E
:10205C001B6A664A23F001031362644B1B6A634AD2
:10206C0023F0040313627B68DB68002B15D0FFF7A9
:10207C0069FB38610AE0FFF765FB02463B69D31A3E
:10208C0041F28832934201D90323ABE0574B1B6AD0
:10209C0003F00203002BEED014E0FFF753FB386182
:1020AC000AE0FFF74FFB02463B69D31A41F2883234
:1020BC00934201D9032395E04C4B1B6A03F00203B6
:1020CC00002BEED1FB7D012B05D1484BDB69474A38
:1020DC0023F08053D3617B68DB69002B00F0818097
:1020EC00424B5B6803F00C03082B61D07B68DB6907
:1020FC00022B46D13F4B00221A60FFF723FB3861BD
:10210C0008E0FFF71FFB02463B69D31A022B01D9EB
:10211C00032367E0354B1B6803F00073002BF0D1F1
:10212C007B681B6AB3F5803F08D1304B5B6823F4A6
:10213C0000327B689B682D4913434B602B4B5B68CB
:10214C0023F474127B68196A7B685B6A0B4327491A
:10215C0013434B60274B01221A60FFF7F3FA3861E7
:10216C0008E0FFF7EFFA02463B69D31A022B01D9BC
:10217C00032337E01D4B1B6803F00073002BF0D0DA
:10218C002FE01C4B00221A60FFF7DCFA386108E0E4
:10219C00FFF7D8FA02463B69D31A022B01D9032365
:1021AC0020E0124B1B6803F00073002BF0D118E0F9
:1021BC007B68DB69012B01D1012313E00B4B5B68BE
:1021CC00FB60FB6803F480327B681B6A9A4206D181
:1021DC00FB6803F470127B685B6A9A4201D001239E
:1021EC0000E0002318461837BD4680BD00100240A1
:1021FC00007000406000424280B584B000AF78604F
:10220C0039607B68002B01D10123D0E06A4B1B683D
:10221C0003F007033A689A4210D9674B1B6823F006
:10222C00070265493B6813430B60634B1B6803F063
:10223C0007033A689A4201D00123B8E07B681B6817
:10224C0003F00203002B20D07B681B6803F004030F
:10225C00002B05D0594B5B68584A43F4E06353603C
:10226C007B681B6803F00803002B05D0534B5B689D
:10227C00524A43F460535360504B5B6823F0F002B6
:10228C007B689B684D4913434B607B681B6803F06C
:10229C000103002B40D07B685B68012B07D1474BB7
:1022AC001B6803F40033002B15D101237FE07B68FE
:1022BC005B68022B07D1414B1B6803F00073002BAA
:1022CC0009D1012373E03D4B1B6803F00203002B83
:1022DC0001D101236BE0394B5B6823F003027B686F
:1022EC005B68364913434B60FFF72CFAF8600AE041
:1022FC00FFF728FA0246FB68D31A41F28832934260
:10230C0001D9032353E02D4B5B6803F00C027B686F
:10231C005B689B009A42EBD1274B1B6803F00703C9
:10232C003A689A4210D2244B1B6823F007022249C8
:10233C003B6813430B60204B1B6803F007033A68A0
:10234C009A4201D0012332E07B681B6803F004033E
:10235C00002B08D0194B5B6823F4E0627B68DB68C8
:10236C00164913434B607B681B6803F00803002B72
:10237C0009D0124B5B6823F460527B681B69DB004D
:10238C000E4913434B6000F021F802460B4B5B687F
:10239C001B0903F00F030A49CB5C22FA03F3094A29
:1023AC001360094B1B681846FFF78AF9002318467F
:1023BC001037BD4680BD00BF002002400010024017
:1023CC001C2D0008500000205400002090B48AB04E
:1023DC0000AF2A4B3C1D0FCB84E80F0040F20123C9
:1023EC003B800023FB610023BB6100237B62002345
:1023FC007B6100233B62224B5B68FB61FB6903F052
:10240C000C03042B02D0082B03D02DE01D4B3B6298
:10241C002DE0FB699B0C03F00F0307F1280213441A
:10242C0013F8243C7B61FB6903F48033002B13D03D
:10243C00134B5B685B0C03F0010307F12802134498
:10244C0013F8283CBB617B690E4A02FB03F2BB69A3
:10245C00B2FBF3F37B6204E07B690B4A02FB03F3F0
:10246C007B627B6A3B6202E0064B3B6200BF3B6ACD
:10247C0018462837BD4690BC704700BF0C2D00088D
:10248C000010024000127A0000093D0080B485B0B3
:10249C0000AF78600A4B1B680A4AA2FB03235B0A55
:1024AC007A6802FB03F3FB6000BFFB685A1EFA60FC
:1024BC00002BF9D100BF00BF1437BD4680BC70475C
:1024CC0050000020D34D621080B582B000AF786010
:1024DC007B68002B01D1012341E07B6893F83D30F0
:1024EC00DBB2002B06D17B68002283F83C20786895
:1024FC00FFF74EF87B68022283F83D207B681A6850
:10250C007B6804331946104600F06AFA7B68012296
:10251C0083F846207B68012283F83E207B680122E9
:10252C0083F83F207B68012283F840207B680122DE
:10253C0083F841207B68012283F842207B680122CA
:10254C0083F843207B68012283F844207B680122B6
:10255C0083F845207B68012283F83D200023184630
:10256C000837BD4680BD000080B485B000AF7860F0
:10257C007B6893F83D30DBB2012B01D0012335E0B1
:10258C007B68022283F83D207B681B68DA687B68D5
:10259C001B6842F00102DA607B681B68164A9342A2
:1025AC0009D07B681B68B3F1804F04D07B681B6833
:1025BC00124A934211D17B681B689B6803F0070396
:1025CC00FB60FB68062B10D07B681B681A687B6865
:1025DC001B6842F001021A6007E07B681B681A68EE
:1025EC007B681B6842F001021A60002318461437FE
:1025FC00BD4680BC704700BF002C01400004004069
:10260C0080B582B000AF78607B681B681B6903F0F3
:10261C000203022B22D17B681B68DB6803F00203E8
:10262C00022B1BD17B681B686FF002021A617B685E
:10263C0001221A777B681B689B6903F00303002B4C
:10264C0003D0786800F0B1F905E0786800F0A4F9DF
:10265C00786800F0B3F97B6800221A777B681B68F6
:10266C001B6903F00403042B22D17B681B68DB6815
:10267C0003F00403042B1BD17B681B686FF004026E
:10268C001A617B6802221A777B681B689B6903F4CA
:10269C004073002B03D0786800F087F905E0786868
:1026AC0000F07AF9786800F089F97B6800221A77D3
:1026BC007B681B681B6903F00803082B22D17B681D
:1026CC001B68DB6803F00803082B1BD17B681B68B5
:1026DC006FF008021A617B6804221A777B681B680A
:1026EC00DB6903F00303002B03D0786800F05DF97D
:1026FC0005E0786800F050F9786800F05FF97B68C5
:10270C0000221A777B681B681B6903F01003102BDF
:10271C0022D17B681B68DB6803F01003102B1BD1E4
:10272C007B681B686FF010021A617B6808221A77AD
:10273C007B681B68DB6903F44073002B03D078685B
:10274C0000F033F905E0786800F026F9786800F0BD
:10275C0035F97B6800221A777B681B681B6903F0CC
:10276C000103012B0ED17B681B68DB6803F00103AE
:10277C00012B07D17B681B686FF001021A61786826
:10278C00FEF700FE7B681B681B6903F08003802B3F
:10279C000ED17B681B68DB6803F08003802B07D1AC
:1027AC007B681B686FF080021A61786800F067FA2A
:1027BC007B681B681B6903F04003402B0ED17B68C0
:1027CC001B68DB6803F04003402B07D17B681B6858
:1027DC006FF040021A61786800F0F9F87B681B68AA
:1027EC001B6903F02003202B0ED17B681B68DB6870
:1027FC0003F02003202B07D17B681B686FF02002AD
:10280C001A61786800F032FA00BF0837BD4680BD07
:10281C0080B584B000AF786039607B6893F83C3049
:10282C00012B01D10223B3E07B68012283F83C2009
:10283C007B68022283F83D207B681B689B68FB60E9
:10284C00FB6823F07703FB60FB6823F47F43FB609A
:10285C007B681B68FA689A603B681B68B3F5005F7D
:10286C003ED0B3F5005F00F28780B3F5805F00F0D7
:10287C008580B3F5805F7FD8702B1AD0702B7BD8F6
:10288C00602B50D0602B77D8502B3CD0502B73D86A
:10289C00402B58D0402B6FD8302B64D0302B6BD8BA
:1028AC00202B60D0202B67D8002B5CD0102B5AD05B
:1028BC0062E07B6818683B6899683B685A683B68BB
:1028CC00DB6800F05CF97B681B689B68FB60FB684D
:1028DC0043F07703FB607B681B68FA689A604EE0F4
:1028EC007B6818683B6899683B685A683B68DB688A
:1028FC0000F045F97B681B689A687B681B6842F49A
:10290C0080429A603BE07B6818683B6859683B687A
:10291C00DB681A4600F0BCF87B681B68502118462F
:10292C0000F013F92BE07B6818683B6859683B682A
:10293C00DB681A4600F0DAF87B681B6860211846E1
:10294C0000F003F91BE07B6818683B6859683B682A
:10295C00DB681A4600F09CF87B681B68402118461F
:10296C0000F0F3F80BE07B681A683B681B681946AB
:10297C00104600F0EAF802E000BF00E000BF7B6800
:10298C00012283F83D207B68002283F83C20002341
:10299C0018461037BD4680BD80B483B000AF786058
:1029AC0000BF0C37BD4680BC704780B483B000AF0D
:1029BC00786000BF0C37BD4680BC704780B483B0D4
:1029CC0000AF786000BF0C37BD4680BC704780B448
:1029DC0083B000AF786000BF0C37BD4680BC704739
:1029EC0080B485B000AF786039607B681B68FB6091
:1029FC007B68254A934207D07B68B3F1804F03D0A4
:102A0C007B68224A934208D1FB6823F07003FB6079
:102A1C003B685B68FA681343FB607B681A4A934215
:102A2C0007D07B68B3F1804F03D07B68174A934281
:102A3C0008D1FB6823F44073FB603B68DB68FA68E1
:102A4C001343FB60FB6823F080023B685B69134314
:102A5C00FB607B68FA681A603B689A687B68DA628C
:102A6C003B681A687B689A627B68074A934203D179
:102A7C003B681A697B681A637B6801225A6100BF44
:102A8C001437BD4680BC7047002C01400004004048
:102A9C0080B487B000AFF860B9607A60FB681B6ADD
:102AAC007B61FB681B6A23F00102FB681A62FB68FE
:102ABC009B693B613B6923F0F0033B617B681B0125
:102ACC003A6913433B617B6923F00A037B617A69A2
:102ADC00BB6813437B61FB683A699A61FB687A694E
:102AEC001A6200BF1C37BD4680BC704780B487B0EB
:102AFC0000AFF860B9607A60FB681B6A23F01002C3
:102B0C00FB681A62FB689B697B61FB681B6A3B6113
:102B1C007B6923F470437B617B681B037A691343E5
:102B2C007B613B6923F0A0033B61BB681B013A69E5
:102B3C0013433B61FB687A699A61FB683A691A62D4
:102B4C0000BF1C37BD4680BC704780B485B000AF59
:102B5C00786039607B689B68FB60FB6823F07003CE
:102B6C00FB603A68FB68134343F00703FB607B6828
:102B7C00FA689A6000BF1437BD4680BC704780B4B9
:102B8C0087B000AFF860B9607A603B60FB689B6807
:102B9C007B617B6923F47F437B613B681A027B6812
:102BAC001A43BB6813437A6913437B61FB687A69E8
:102BBC009A6000BF1C37BD4680BC704780B485B09E
:102BCC0000AF786039607B6893F83C30012B01D101
:102BDC00022341E07B68012283F83C207B680222BF
:102BEC0083F83D207B681B685B68FB607B681B6817
:102BFC009B68BB60FB6823F07003FB603B681B6841
:102C0C00FA681343FB607B681B68FA685A607B6840
:102C1C001B68144A934209D07B681B68B3F1804F40
:102C2C0004D07B681B68104A93420CD1BB6823F01C
:102C3C008003BB603B685B68BA681343BB607B680E
:102C4C001B68BA689A607B68012283F83D207B6818
:102C5C00002283F83C20002318461437BD4680BC64
:102C6C00704700BF002C01400004004080B483B0CA
:102C7C0000AF786000BF0C37BD4680BC704780B495
:102C8C0083B000AF786000BF0C37BD4680BC704786
:102C9C0070B500260C4D0D4C641BA410A64209D136
:102CAC0000F022F800260A4D0A4C641BA410A64220
:102CBC0005D170BD55F8043B98470136EEE755F841
:102CCC00043B98470136F2E72C2D00082C2D000808
:102CDC002C2D0008302D000803460244934200D1ED
:102CEC00704703F8011BF9E7F8B500BFF8BC08BC46
:102CFC009E467047F8B500BFF8BC08BC9E467047AE
:102D0C0002030405060708090A0B0C0D0E0F101020
:102D1C00000000000000000001020304060708097F
:042D2C003101000869
:042D30000D01000889
:102D3400010000000100000001000000010000008B
:102D4400010000000100000001000000010000007B
:102D5400010000000100000001000000010000006B
:102D64002C0100002C0100002C01000008000000D0
:102D74000500000003000000050000000A00000038
:0C2D84000024F40010000000010000001A
:040000050800165584
:00000001FF
